{
  "_format": "hh-sol-artifact-1",
  "contractName": "WorldGreet",
  "sourceName": "contracts/WorldGreet.sol",
  "abi": [
    {
      "inputs": [],
      "stateMutability": "nonpayable",
      "type": "constructor"
    },
    {
      "inputs": [],
      "name": "getTotalHellos",
      "outputs": [
        {
          "internalType": "uint256",
          "name": "",
          "type": "uint256"
        }
      ],
      "stateMutability": "view",
      "type": "function"
    },
    {
      "inputs": [],
      "name": "sayHello",
      "outputs": [],
      "stateMutability": "nonpayable",
      "type": "function"
    }
  ],
  "bytecode": "0x608060405234801561001057600080fd5b506100596040518060400160405280601a81526020017f57686174277320706f7070696e20455448206e6574776f726b3f00000000000081525061005e60201b61025a1760201c565b6101e1565b6100fa81604051602401610072919061015f565b6040516020818303038152906040527f41304fac000000000000000000000000000000000000000000000000000000007bffffffffffffffffffffffffffffffffffffffffffffffffffffffff19166020820180517bffffffffffffffffffffffffffffffffffffffffffffffffffffffff83818316178352505050506100fd60201b60201c565b50565b60008151905060006a636f6e736f6c652e6c6f679050602083016000808483855afa5050505050565b600061013182610181565b61013b818561018c565b935061014b81856020860161019d565b610154816101d0565b840191505092915050565b600060208201905081810360008301526101798184610126565b905092915050565b600081519050919050565b600082825260208201905092915050565b60005b838110156101bb5780820151818401526020810190506101a0565b838111156101ca576000848401525b50505050565b6000601f19601f8301169050919050565b6107c6806101f06000396000f3fe608060405234801561001057600080fd5b50600436106100365760003560e01c8063ee5519161461003b578063ef5fb05b14610059575b600080fd5b610043610063565b604051610050919061060a565b60405180910390f35b610061610097565b005b600061008f604051806060016040528060288152602001610747602891396000546002805490506102f3565b600054905090565b60016000808282546100a99190610641565b925050819055506000600160003373ffffffffffffffffffffffffffffffffffffffff1673ffffffffffffffffffffffffffffffffffffffff16815260200190815260200160002054141561015c576002339080600181540180825580915050600190039060005260206000200160009091909190916101000a81548173ffffffffffffffffffffffffffffffffffffffff021916908373ffffffffffffffffffffffffffffffffffffffff1602179055505b60018060003373ffffffffffffffffffffffffffffffffffffffff1673ffffffffffffffffffffffffffffffffffffffff16815260200190815260200160002060008282546101ab9190610641565b925050819055506000600160003373ffffffffffffffffffffffffffffffffffffffff1673ffffffffffffffffffffffffffffffffffffffff1681526020019081526020016000205490506102356040518060400160405280600d81526020017f257320686173207761766564210000000000000000000000000000000000000081525033610392565b61025760405180606001604052806022815260200161076f602291398261042e565b50565b6102f08160405160240161026e919061054a565b6040516020818303038152906040527f41304fac000000000000000000000000000000000000000000000000000000007bffffffffffffffffffffffffffffffffffffffffffffffffffffffff19166020820180517bffffffffffffffffffffffffffffffffffffffffffffffffffffffff83818316178352505050506104ca565b50565b61038d83838360405160240161030b939291906105cc565b6040516020818303038152906040527f969cdd03000000000000000000000000000000000000000000000000000000007bffffffffffffffffffffffffffffffffffffffffffffffffffffffff19166020820180517bffffffffffffffffffffffffffffffffffffffffffffffffffffffff83818316178352505050506104ca565b505050565b61042a82826040516024016103a892919061056c565b6040516020818303038152906040527f319af333000000000000000000000000000000000000000000000000000000007bffffffffffffffffffffffffffffffffffffffffffffffffffffffff19166020820180517bffffffffffffffffffffffffffffffffffffffffffffffffffffffff83818316178352505050506104ca565b5050565b6104c6828260405160240161044492919061059c565b6040516020818303038152906040527f9710a9d0000000000000000000000000000000000000000000000000000000007bffffffffffffffffffffffffffffffffffffffffffffffffffffffff19166020820180517bffffffffffffffffffffffffffffffffffffffffffffffffffffffff83818316178352505050506104ca565b5050565b60008151905060006a636f6e736f6c652e6c6f679050602083016000808483855afa5050505050565b6104fc81610697565b82525050565b600061050d82610625565b6105178185610630565b93506105278185602086016106d3565b61053081610735565b840191505092915050565b610544816106c9565b82525050565b600060208201905081810360008301526105648184610502565b905092915050565b600060408201905081810360008301526105868185610502565b905061059560208301846104f3565b9392505050565b600060408201905081810360008301526105b68185610502565b90506105c5602083018461053b565b9392505050565b600060608201905081810360008301526105e68186610502565b90506105f5602083018561053b565b610602604083018461053b565b949350505050565b600060208201905061061f600083018461053b565b92915050565b600081519050919050565b600082825260208201905092915050565b600061064c826106c9565b9150610657836106c9565b9250827fffffffffffffffffffffffffffffffffffffffffffffffffffffffffffffffff0382111561068c5761068b610706565b5b828201905092915050565b60006106a2826106a9565b9050919050565b600073ffffffffffffffffffffffffffffffffffffffff82169050919050565b6000819050919050565b60005b838110156106f15780820151818401526020810190506106d6565b83811115610700576000848401525b50505050565b7f4e487b7100000000000000000000000000000000000000000000000000000000600052601160045260246000fd5b6000601f19601f830116905091905056fe257320746f74616c2068656c6c6f732066726f6d20257320756e6971756520616464726573736573546869732061646472657373206861732077617665642025732074696d652873292ea2646970667358221220345f9d2ebecd08a7c6f2bf116724b23fd7b1cbb11d5666f28ac8ae7e6320058d64736f6c63430008000033",
  "linkReferences": {},
  "deployedLinkReferences": {}
}