{
  "_format": "hh-sol-artifact-1",
  "contractName": "WorldGreet",
  "sourceName": "contracts/WorldGreet.sol",
  "abi": [
    {
      "inputs": [],
      "stateMutability": "nonpayable",
      "type": "constructor"
    },
    {
      "anonymous": false,
      "inputs": [
        {
          "indexed": true,
          "internalType": "address",
          "name": "from",
          "type": "address"
        },
        {
          "indexed": false,
          "internalType": "uint256",
          "name": "timestamp",
          "type": "uint256"
        },
        {
          "indexed": false,
          "internalType": "string",
          "name": "message",
          "type": "string"
        }
      ],
      "name": "NewGreeting",
      "type": "event"
    },
    {
      "inputs": [],
      "name": "getAllHellos",
      "outputs": [
        {
          "components": [
            {
              "internalType": "address",
              "name": "greeterAddress",
              "type": "address"
            },
            {
              "internalType": "string",
              "name": "message",
              "type": "string"
            },
            {
              "internalType": "uint256",
              "name": "timestamp",
              "type": "uint256"
            }
          ],
          "internalType": "struct WorldGreet.Greeters[]",
          "name": "",
          "type": "tuple[]"
        }
      ],
      "stateMutability": "view",
      "type": "function"
    },
    {
      "inputs": [],
      "name": "getTotalHellos",
      "outputs": [
        {
          "internalType": "uint256",
          "name": "",
          "type": "uint256"
        }
      ],
      "stateMutability": "view",
      "type": "function"
    },
    {
      "inputs": [
        {
          "internalType": "string",
          "name": "_message",
          "type": "string"
        }
      ],
      "name": "sayHello",
      "outputs": [],
      "stateMutability": "nonpayable",
      "type": "function"
    }
  ],
  "bytecode": "0x60806040523480156200001157600080fd5b506200005d6040518060400160405280601a81526020017f57686174277320706f7070696e20455448206e6574776f726b3f0000000000008152506200006360201b620005031760201c565b620001f7565b62000103816040516024016200007a919062000170565b6040516020818303038152906040527f41304fac000000000000000000000000000000000000000000000000000000007bffffffffffffffffffffffffffffffffffffffffffffffffffffffff19166020820180517bffffffffffffffffffffffffffffffffffffffffffffffffffffffff83818316178352505050506200010660201b60201c565b50565b60008151905060006a636f6e736f6c652e6c6f679050602083016000808483855afa5050505050565b60006200013c8262000194565b6200014881856200019f565b93506200015a818560208601620001b0565b6200016581620001e6565b840191505092915050565b600060208201905081810360008301526200018c81846200012f565b905092915050565b600081519050919050565b600082825260208201905092915050565b60005b83811015620001d0578082015181840152602081019050620001b3565b83811115620001e0576000848401525b50505050565b6000601f19601f8301169050919050565b610e8c80620002076000396000f3fe608060405234801561001057600080fd5b50600436106100415760003560e01c8063c3a9b1c514610046578063ee55191614610062578063f690805714610080575b600080fd5b610060600480360381019061005b91906108a7565b61009e565b005b61006a61037e565b6040516100779190610b51565b60405180910390f35b6100886103b2565b6040516100959190610a6f565b60405180910390f35b60016000808282546100b09190610c63565b925050819055506000600160003373ffffffffffffffffffffffffffffffffffffffff1673ffffffffffffffffffffffffffffffffffffffff168152602001908152602001600020541415610163576002339080600181540180825580915050600190039060005260206000200160009091909190916101000a81548173ffffffffffffffffffffffffffffffffffffffff021916908373ffffffffffffffffffffffffffffffffffffffff1602179055505b60018060003373ffffffffffffffffffffffffffffffffffffffff1673ffffffffffffffffffffffffffffffffffffffff16815260200190815260200160002060008282546101b29190610c63565b92505081905550600360405180606001604052803373ffffffffffffffffffffffffffffffffffffffff16815260200183815260200142815250908060018154018082558091505060019003906000526020600020906003020160009091909190915060008201518160000160006101000a81548173ffffffffffffffffffffffffffffffffffffffff021916908373ffffffffffffffffffffffffffffffffffffffff160217905550602082015181600101908051906020019061027892919061079c565b506040820151816002015550506000600160003373ffffffffffffffffffffffffffffffffffffffff1673ffffffffffffffffffffffffffffffffffffffff1681526020019081526020016000205490506103086040518060400160405280601281526020017f25732068617320736169642068656c6c6f2100000000000000000000000000008152503361059c565b61032a604051806060016040528060278152602001610e086027913982610638565b3373ffffffffffffffffffffffffffffffffffffffff167fac7671fb68790e696e41047a5a37814aa8fcb440624d96b496c27b20b0e03bcd4284604051610372929190610b6c565b60405180910390a25050565b60006103aa604051806060016040528060288152602001610e2f602891396000546002805490506106d4565b600054905090565b60606003805480602002602001604051908101604052809291908181526020016000905b828210156104fa57838290600052602060002090600302016040518060600160405290816000820160009054906101000a900473ffffffffffffffffffffffffffffffffffffffff1673ffffffffffffffffffffffffffffffffffffffff1673ffffffffffffffffffffffffffffffffffffffff16815260200160018201805461045f90610d37565b80601f016020809104026020016040519081016040528092919081815260200182805461048b90610d37565b80156104d85780601f106104ad576101008083540402835291602001916104d8565b820191906000526020600020905b8154815290600101906020018083116104bb57829003601f168201915b50505050508152602001600282015481525050815260200190600101906103d6565b50505050905090565b610599816040516024016105179190610a91565b6040516020818303038152906040527f41304fac000000000000000000000000000000000000000000000000000000007bffffffffffffffffffffffffffffffffffffffffffffffffffffffff19166020820180517bffffffffffffffffffffffffffffffffffffffffffffffffffffffff8381831617835250505050610773565b50565b61063482826040516024016105b2929190610ab3565b6040516020818303038152906040527f319af333000000000000000000000000000000000000000000000000000000007bffffffffffffffffffffffffffffffffffffffffffffffffffffffff19166020820180517bffffffffffffffffffffffffffffffffffffffffffffffffffffffff8381831617835250505050610773565b5050565b6106d0828260405160240161064e929190610ae3565b6040516020818303038152906040527f9710a9d0000000000000000000000000000000000000000000000000000000007bffffffffffffffffffffffffffffffffffffffffffffffffffffffff19166020820180517bffffffffffffffffffffffffffffffffffffffffffffffffffffffff8381831617835250505050610773565b5050565b61076e8383836040516024016106ec93929190610b13565b6040516020818303038152906040527f969cdd03000000000000000000000000000000000000000000000000000000007bffffffffffffffffffffffffffffffffffffffffffffffffffffffff19166020820180517bffffffffffffffffffffffffffffffffffffffffffffffffffffffff8381831617835250505050610773565b505050565b60008151905060006a636f6e736f6c652e6c6f679050602083016000808483855afa5050505050565b8280546107a890610d37565b90600052602060002090601f0160209004810192826107ca5760008555610811565b82601f106107e357805160ff1916838001178555610811565b82800160010185558215610811579182015b828111156108105782518255916020019190600101906107f5565b5b50905061081e9190610822565b5090565b5b8082111561083b576000816000905550600101610823565b5090565b600061085261084d84610bcd565b610b9c565b90508281526020810184848401111561086a57600080fd5b610875848285610cf5565b509392505050565b600082601f83011261088e57600080fd5b813561089e84826020860161083f565b91505092915050565b6000602082840312156108b957600080fd5b600082013567ffffffffffffffff8111156108d357600080fd5b6108df8482850161087d565b91505092915050565b60006108f48383610a01565b905092915050565b61090581610cb9565b82525050565b61091481610cb9565b82525050565b600061092582610c0d565b61092f8185610c30565b93508360208202850161094185610bfd565b8060005b8581101561097d578484038952815161095e85826108e8565b945061096983610c23565b925060208a01995050600181019050610945565b50829750879550505050505092915050565b600061099a82610c18565b6109a48185610c41565b93506109b4818560208601610d04565b6109bd81610df6565b840191505092915050565b60006109d382610c18565b6109dd8185610c52565b93506109ed818560208601610d04565b6109f681610df6565b840191505092915050565b6000606083016000830151610a1960008601826108fc565b5060208301518482036020860152610a31828261098f565b9150506040830151610a466040860182610a51565b508091505092915050565b610a5a81610ceb565b82525050565b610a6981610ceb565b82525050565b60006020820190508181036000830152610a89818461091a565b905092915050565b60006020820190508181036000830152610aab81846109c8565b905092915050565b60006040820190508181036000830152610acd81856109c8565b9050610adc602083018461090b565b9392505050565b60006040820190508181036000830152610afd81856109c8565b9050610b0c6020830184610a60565b9392505050565b60006060820190508181036000830152610b2d81866109c8565b9050610b3c6020830185610a60565b610b496040830184610a60565b949350505050565b6000602082019050610b666000830184610a60565b92915050565b6000604082019050610b816000830185610a60565b8181036020830152610b9381846109c8565b90509392505050565b6000604051905081810181811067ffffffffffffffff82111715610bc357610bc2610dc7565b5b8060405250919050565b600067ffffffffffffffff821115610be857610be7610dc7565b5b601f19601f8301169050602081019050919050565b6000819050602082019050919050565b600081519050919050565b600081519050919050565b6000602082019050919050565b600082825260208201905092915050565b600082825260208201905092915050565b600082825260208201905092915050565b6000610c6e82610ceb565b9150610c7983610ceb565b9250827fffffffffffffffffffffffffffffffffffffffffffffffffffffffffffffffff03821115610cae57610cad610d69565b5b828201905092915050565b6000610cc482610ccb565b9050919050565b600073ffffffffffffffffffffffffffffffffffffffff82169050919050565b6000819050919050565b82818337600083830152505050565b60005b83811015610d22578082015181840152602081019050610d07565b83811115610d31576000848401525b50505050565b60006002820490506001821680610d4f57607f821691505b60208210811415610d6357610d62610d98565b5b50919050565b7f4e487b7100000000000000000000000000000000000000000000000000000000600052601160045260246000fd5b7f4e487b7100000000000000000000000000000000000000000000000000000000600052602260045260246000fd5b7f4e487b7100000000000000000000000000000000000000000000000000000000600052604160045260246000fd5b6000601f19601f830116905091905056fe5468697320616464726573732068617320736169642068656c6c6f2025732074696d652873292e257320746f74616c2068656c6c6f732066726f6d20257320756e6971756520616464726573736573a264697066735822122053628d26536e889c8d1330b909b2dac6cf69327267b867819cdf722215918a8e64736f6c63430008000033",
  "linkReferences": {},
  "deployedLinkReferences": {}
}